{
  "contractName": "Products",
  "abi": [
    {
      "inputs": [],
      "stateMutability": "nonpayable",
      "type": "constructor"
    },
    {
      "inputs": [
        {
          "internalType": "string",
          "name": "name",
          "type": "string"
        },
        {
          "internalType": "string",
          "name": "desc",
          "type": "string"
        },
        {
          "internalType": "uint256",
          "name": "price",
          "type": "uint256"
        },
        {
          "internalType": "uint256",
          "name": "rent",
          "type": "uint256"
        }
      ],
      "name": "addProduct",
      "outputs": [
        {
          "internalType": "bool",
          "name": "success",
          "type": "bool"
        }
      ],
      "stateMutability": "nonpayable",
      "type": "function"
    },
    {
      "inputs": [
        {
          "internalType": "uint256",
          "name": "id",
          "type": "uint256"
        }
      ],
      "name": "buyProduct",
      "outputs": [
        {
          "internalType": "bool",
          "name": "success",
          "type": "bool"
        }
      ],
      "stateMutability": "nonpayable",
      "type": "function"
    },
    {
      "inputs": [
        {
          "internalType": "uint256",
          "name": "id",
          "type": "uint256"
        }
      ],
      "name": "rentProduct",
      "outputs": [
        {
          "internalType": "bool",
          "name": "success",
          "type": "bool"
        }
      ],
      "stateMutability": "nonpayable",
      "type": "function"
    },
    {
      "inputs": [
        {
          "internalType": "uint256",
          "name": "index",
          "type": "uint256"
        }
      ],
      "name": "getMyProducts",
      "outputs": [
        {
          "internalType": "string",
          "name": "name",
          "type": "string"
        },
        {
          "internalType": "string",
          "name": "desc",
          "type": "string"
        },
        {
          "internalType": "uint256",
          "name": "pr",
          "type": "uint256"
        },
        {
          "internalType": "uint256",
          "name": "ren",
          "type": "uint256"
        },
        {
          "internalType": "string",
          "name": "reviews",
          "type": "string"
        }
      ],
      "stateMutability": "view",
      "type": "function",
      "constant": true
    },
    {
      "inputs": [
        {
          "internalType": "uint256",
          "name": "index",
          "type": "uint256"
        }
      ],
      "name": "getMyProductsRent",
      "outputs": [
        {
          "internalType": "string",
          "name": "name",
          "type": "string"
        },
        {
          "internalType": "string",
          "name": "desc",
          "type": "string"
        },
        {
          "internalType": "uint256",
          "name": "pr",
          "type": "uint256"
        },
        {
          "internalType": "uint256",
          "name": "ren",
          "type": "uint256"
        },
        {
          "internalType": "string",
          "name": "reviews",
          "type": "string"
        }
      ],
      "stateMutability": "view",
      "type": "function",
      "constant": true
    },
    {
      "inputs": [
        {
          "internalType": "uint256",
          "name": "index",
          "type": "uint256"
        },
        {
          "internalType": "string",
          "name": "rev",
          "type": "string"
        }
      ],
      "name": "addReview",
      "outputs": [
        {
          "internalType": "bool",
          "name": "success",
          "type": "bool"
        }
      ],
      "stateMutability": "nonpayable",
      "type": "function"
    },
    {
      "inputs": [],
      "name": "getProductsCount",
      "outputs": [
        {
          "internalType": "uint256",
          "name": "count",
          "type": "uint256"
        }
      ],
      "stateMutability": "view",
      "type": "function",
      "constant": true
    },
    {
      "inputs": [
        {
          "internalType": "uint256",
          "name": "index",
          "type": "uint256"
        }
      ],
      "name": "getProduct",
      "outputs": [
        {
          "internalType": "string",
          "name": "name",
          "type": "string"
        },
        {
          "internalType": "string",
          "name": "desc",
          "type": "string"
        },
        {
          "internalType": "uint256",
          "name": "pr",
          "type": "uint256"
        },
        {
          "internalType": "uint256",
          "name": "ren",
          "type": "uint256"
        },
        {
          "internalType": "string",
          "name": "reviews",
          "type": "string"
        }
      ],
      "stateMutability": "view",
      "type": "function",
      "constant": true
    },
    {
      "inputs": [
        {
          "internalType": "uint256",
          "name": "id",
          "type": "uint256"
        }
      ],
      "name": "unRentProduct",
      "outputs": [
        {
          "internalType": "bool",
          "name": "success",
          "type": "bool"
        }
      ],
      "stateMutability": "nonpayable",
      "type": "function"
    }
  ],
  "bytecode": "0x6080604052600180553480156200001557600080fd5b5060006040518061014001604052806040518060400160405280600581526020017f436976696300000000000000000000000000000000000000000000000000000081525081526020016040518060400160405280601081526020017f486f6e64612043697669632032303232000000000000000000000000000000008152508152602001600081526020013373ffffffffffffffffffffffffffffffffffffffff1681526020013373ffffffffffffffffffffffffffffffffffffffff1681526020013373ffffffffffffffffffffffffffffffffffffffff16815260200160028152602001600181526020016000815260200160405180602001604052806000815250815250905060006040518061014001604052806040518060400160405280600581526020017f436861697200000000000000000000000000000000000000000000000000000081525081526020016040518060400160405280600d81526020017f4120626c61636b206368616972000000000000000000000000000000000000008152508152602001600081526020013373ffffffffffffffffffffffffffffffffffffffff1681526020013373ffffffffffffffffffffffffffffffffffffffff1681526020013373ffffffffffffffffffffffffffffffffffffffff16815260200160028152602001600181526020016000815260200160405180602001604052806000815250815250905060006040518061014001604052806040518060400160405280600681526020017f43616d657261000000000000000000000000000000000000000000000000000081525081526020016040518060400160405280600c81526020017f4e696b6f6e2043616d65726100000000000000000000000000000000000000008152508152602001600081526020013373ffffffffffffffffffffffffffffffffffffffff1681526020013373ffffffffffffffffffffffffffffffffffffffff1681526020013373ffffffffffffffffffffffffffffffffffffffff16815260200160028152602001600181526020016000815260200160405180602001604052806000815250815250905060006040518061014001604052806040518060400160405280600981526020017f4d6572636564656573000000000000000000000000000000000000000000000081525081526020016040518060400160405280600a81526020017f5336303020426c61636b000000000000000000000000000000000000000000008152508152602001600081526020013373ffffffffffffffffffffffffffffffffffffffff1681526020013373ffffffffffffffffffffffffffffffffffffffff1681526020013373ffffffffffffffffffffffffffffffffffffffff16815260200160028152602001600181526020016000815260200160405180602001604052806000815250815250905060008490806001815401808255809150506001900390600052602060002090600a020160009091909190915060008201518160000190805190602001906200048492919062000a6c565b506020820151816001019080519060200190620004a392919062000a6c565b506040820151816002015560608201518160030160006101000a81548173ffffffffffffffffffffffffffffffffffffffff021916908373ffffffffffffffffffffffffffffffffffffffff16021790555060808201518160040160006101000a81548173ffffffffffffffffffffffffffffffffffffffff021916908373ffffffffffffffffffffffffffffffffffffffff16021790555060a08201518160050160006101000a81548173ffffffffffffffffffffffffffffffffffffffff021916908373ffffffffffffffffffffffffffffffffffffffff16021790555060c0820151816006015560e082015181600701556101008201518160080155610120820151816009019080519060200190620005c192919062000a6c565b50505060008390806001815401808255809150506001900390600052602060002090600a020160009091909190915060008201518160000190805190602001906200060e92919062000a6c565b5060208201518160010190805190602001906200062d92919062000a6c565b506040820151816002015560608201518160030160006101000a81548173ffffffffffffffffffffffffffffffffffffffff021916908373ffffffffffffffffffffffffffffffffffffffff16021790555060808201518160040160006101000a81548173ffffffffffffffffffffffffffffffffffffffff021916908373ffffffffffffffffffffffffffffffffffffffff16021790555060a08201518160050160006101000a81548173ffffffffffffffffffffffffffffffffffffffff021916908373ffffffffffffffffffffffffffffffffffffffff16021790555060c0820151816006015560e0820151816007015561010082015181600801556101208201518160090190805190602001906200074b92919062000a6c565b50505060008290806001815401808255809150506001900390600052602060002090600a020160009091909190915060008201518160000190805190602001906200079892919062000a6c565b506020820151816001019080519060200190620007b792919062000a6c565b506040820151816002015560608201518160030160006101000a81548173ffffffffffffffffffffffffffffffffffffffff021916908373ffffffffffffffffffffffffffffffffffffffff16021790555060808201518160040160006101000a81548173ffffffffffffffffffffffffffffffffffffffff021916908373ffffffffffffffffffffffffffffffffffffffff16021790555060a08201518160050160006101000a81548173ffffffffffffffffffffffffffffffffffffffff021916908373ffffffffffffffffffffffffffffffffffffffff16021790555060c0820151816006015560e082015181600701556101008201518160080155610120820151816009019080519060200190620008d592919062000a6c565b50505060008190806001815401808255809150506001900390600052602060002090600a020160009091909190915060008201518160000190805190602001906200092292919062000a6c565b5060208201518160010190805190602001906200094192919062000a6c565b506040820151816002015560608201518160030160006101000a81548173ffffffffffffffffffffffffffffffffffffffff021916908373ffffffffffffffffffffffffffffffffffffffff16021790555060808201518160040160006101000a81548173ffffffffffffffffffffffffffffffffffffffff021916908373ffffffffffffffffffffffffffffffffffffffff16021790555060a08201518160050160006101000a81548173ffffffffffffffffffffffffffffffffffffffff021916908373ffffffffffffffffffffffffffffffffffffffff16021790555060c0820151816006015560e08201518160070155610100820151816008015561012082015181600901908051906020019062000a5f92919062000a6c565b5050505050505062000b80565b82805462000a7a9062000b4b565b90600052602060002090601f01602090048101928262000a9e576000855562000aea565b82601f1062000ab957805160ff191683800117855562000aea565b8280016001018555821562000aea579182015b8281111562000ae957825182559160200191906001019062000acc565b5b50905062000af9919062000afd565b5090565b5b8082111562000b1857600081600090555060010162000afe565b5090565b7f4e487b7100000000000000000000000000000000000000000000000000000000600052602260045260246000fd5b6000600282049050600182168062000b6457607f821691505b60208210810362000b7a5762000b7962000b1c565b5b50919050565b61177c8062000b906000396000f3fe608060405234801561001057600080fd5b50600436106100935760003560e01c80635bb0c5d6116100665780635bb0c5d61461014a57806381ee6c8c1461017a5780638642269e146101ae578063b9db15b4146101de578063f4afd3b71461021257610093565b806301cecd1414610098578063055f0f0a146100c857806317153192146100f85780635786fd401461012c575b600080fd5b6100b260048036038101906100ad919061127a565b610242565b6040516100bf9190611334565b60405180910390f35b6100e260048036038101906100dd919061134f565b610486565b6040516100ef9190611334565b60405180910390f35b610112600480360381019061010d919061134f565b610563565b604051610123959493929190611413565b60405180910390f35b61013461083d565b604051610141919061147b565b60405180910390f35b610164600480360381019061015f9190611496565b610849565b6040516101719190611334565b60405180910390f35b610194600480360381019061018f919061134f565b610a4f565b6040516101a5959493929190611413565b60405180910390f35b6101c860048036038101906101c3919061134f565b610ca8565b6040516101d59190611334565b60405180910390f35b6101f860048036038101906101f3919061134f565b610d42565b604051610209959493929190611413565b60405180910390f35b61022c6004803603810190610227919061134f565b610fad565b6040516102399190611334565b60405180910390f35b60008060405180610140016040528087815260200186815260200160015481526020013373ffffffffffffffffffffffffffffffffffffffff1681526020013373ffffffffffffffffffffffffffffffffffffffff1681526020013373ffffffffffffffffffffffffffffffffffffffff16815260200185815260200184815260200160008152602001604051806020016040528060008152508152509050600180546102ef9190611521565b60018190555060008190806001815401808255809150506001900390600052602060002090600a0201600090919091909150600082015181600001908051906020019061033d929190611047565b50602082015181600101908051906020019061035a929190611047565b506040820151816002015560608201518160030160006101000a81548173ffffffffffffffffffffffffffffffffffffffff021916908373ffffffffffffffffffffffffffffffffffffffff16021790555060808201518160040160006101000a81548173ffffffffffffffffffffffffffffffffffffffff021916908373ffffffffffffffffffffffffffffffffffffffff16021790555060a08201518160050160006101000a81548173ffffffffffffffffffffffffffffffffffffffff021916908373ffffffffffffffffffffffffffffffffffffffff16021790555060c0820151816006015560e082015181600701556101008201518160080155610120820151816009019080519060200190610476929190611047565b5050506001915050949350505050565b600080828154811061049b5761049a611577565b5b90600052602060002090600a020160040160009054906101000a900473ffffffffffffffffffffffffffffffffffffffff16600083815481106104e1576104e0611577565b5b90600052602060002090600a020160050160006101000a81548173ffffffffffffffffffffffffffffffffffffffff021916908373ffffffffffffffffffffffffffffffffffffffff160217905550600080838154811061054557610544611577565b5b90600052602060002090600a02016008018190555060019050919050565b606080600080606060008087815481106105805761057f611577565b5b90600052602060002090600a020190503373ffffffffffffffffffffffffffffffffffffffff168160050160009054906101000a900473ffffffffffffffffffffffffffffffffffffffff1673ffffffffffffffffffffffffffffffffffffffff1614801561066357508060040160009054906101000a900473ffffffffffffffffffffffffffffffffffffffff1673ffffffffffffffffffffffffffffffffffffffff168160050160009054906101000a900473ffffffffffffffffffffffffffffffffffffffff1673ffffffffffffffffffffffffffffffffffffffff1614155b15610832578060000181600101826006015483600701548460090184805461068a906115d5565b80601f01602080910402602001604051908101604052809291908181526020018280546106b6906115d5565b80156107035780601f106106d857610100808354040283529160200191610703565b820191906000526020600020905b8154815290600101906020018083116106e657829003601f168201915b50505050509450838054610716906115d5565b80601f0160208091040260200160405190810160405280929190818152602001828054610742906115d5565b801561078f5780601f106107645761010080835404028352916020019161078f565b820191906000526020600020905b81548152906001019060200180831161077257829003601f168201915b505050505093508080546107a2906115d5565b80601f01602080910402602001604051908101604052809291908181526020018280546107ce906115d5565b801561081b5780601f106107f05761010080835404028352916020019161081b565b820191906000526020600020905b8154815290600101906020018083116107fe57829003601f168201915b505050505090509550955095509550955050610834565b505b91939590929450565b60008080549050905090565b60003373ffffffffffffffffffffffffffffffffffffffff166000848154811061087657610875611577565b5b90600052602060002090600a020160050160009054906101000a900473ffffffffffffffffffffffffffffffffffffffff1673ffffffffffffffffffffffffffffffffffffffff16148061093a57503373ffffffffffffffffffffffffffffffffffffffff16600084815481106108f0576108ef611577565b5b90600052602060002090600a020160040160009054906101000a900473ffffffffffffffffffffffffffffffffffffffff1673ffffffffffffffffffffffffffffffffffffffff16145b15610a44576000838154811061095357610952611577565b5b90600052602060002090600a020160090160405160200161097491906116cb565b6040516020818303038152906040526000848154811061099757610996611577565b5b90600052602060002090600a020160090190805190602001906109bb929190611047565b50600083815481106109d0576109cf611577565b5b90600052602060002090600a0201600901826040516020016109f3929190611722565b60405160208183030381529060405260008481548110610a1657610a15611577565b5b90600052602060002090600a02016009019080519060200190610a3a929190611047565b5060019050610a49565b600090505b92915050565b60608060008060606000808781548110610a6c57610a6b611577565b5b90600052602060002090600a020190503373ffffffffffffffffffffffffffffffffffffffff168160040160009054906101000a900473ffffffffffffffffffffffffffffffffffffffff1673ffffffffffffffffffffffffffffffffffffffff1603610c9d5780600001816001018260060154836007015484600901848054610af5906115d5565b80601f0160208091040260200160405190810160405280929190818152602001828054610b21906115d5565b8015610b6e5780601f10610b4357610100808354040283529160200191610b6e565b820191906000526020600020905b815481529060010190602001808311610b5157829003601f168201915b50505050509450838054610b81906115d5565b80601f0160208091040260200160405190810160405280929190818152602001828054610bad906115d5565b8015610bfa5780601f10610bcf57610100808354040283529160200191610bfa565b820191906000526020600020905b815481529060010190602001808311610bdd57829003601f168201915b50505050509350808054610c0d906115d5565b80601f0160208091040260200160405190810160405280929190818152602001828054610c39906115d5565b8015610c865780601f10610c5b57610100808354040283529160200191610c86565b820191906000526020600020905b815481529060010190602001808311610c6957829003601f168201915b505050505090509550955095509550955050610c9f565b505b91939590929450565b60003360008381548110610cbf57610cbe611577565b5b90600052602060002090600a020160040160006101000a81548173ffffffffffffffffffffffffffffffffffffffff021916908373ffffffffffffffffffffffffffffffffffffffff160217905550600160008381548110610d2457610d23611577565b5b90600052602060002090600a02016008018190555060019050919050565b60608060008060606000808781548110610d5f57610d5e611577565b5b90600052602060002090600a020190503373ffffffffffffffffffffffffffffffffffffffff168160040160009054906101000a900473ffffffffffffffffffffffffffffffffffffffff1673ffffffffffffffffffffffffffffffffffffffff1614158015610dd3575060008160080154145b15610fa25780600001816001018260060154836007015484600901848054610dfa906115d5565b80601f0160208091040260200160405190810160405280929190818152602001828054610e26906115d5565b8015610e735780601f10610e4857610100808354040283529160200191610e73565b820191906000526020600020905b815481529060010190602001808311610e5657829003601f168201915b50505050509450838054610e86906115d5565b80601f0160208091040260200160405190810160405280929190818152602001828054610eb2906115d5565b8015610eff5780601f10610ed457610100808354040283529160200191610eff565b820191906000526020600020905b815481529060010190602001808311610ee257829003601f168201915b50505050509350808054610f12906115d5565b80601f0160208091040260200160405190810160405280929190818152602001828054610f3e906115d5565b8015610f8b5780601f10610f6057610100808354040283529160200191610f8b565b820191906000526020600020905b815481529060010190602001808311610f6e57829003601f168201915b505050505090509550955095509550955050610fa4565b505b91939590929450565b60003360008381548110610fc457610fc3611577565b5b90600052602060002090600a020160050160006101000a81548173ffffffffffffffffffffffffffffffffffffffff021916908373ffffffffffffffffffffffffffffffffffffffff16021790555060026000838154811061102957611028611577565b5b90600052602060002090600a02016008018190555060019050919050565b828054611053906115d5565b90600052602060002090601f01602090048101928261107557600085556110bc565b82601f1061108e57805160ff19168380011785556110bc565b828001600101855582156110bc579182015b828111156110bb5782518255916020019190600101906110a0565b5b5090506110c991906110cd565b5090565b5b808211156110e65760008160009055506001016110ce565b5090565b6000604051905090565b600080fd5b600080fd5b600080fd5b600080fd5b6000601f19601f8301169050919050565b7f4e487b7100000000000000000000000000000000000000000000000000000000600052604160045260246000fd5b61115182611108565b810181811067ffffffffffffffff821117156111705761116f611119565b5b80604052505050565b60006111836110ea565b905061118f8282611148565b919050565b600067ffffffffffffffff8211156111af576111ae611119565b5b6111b882611108565b9050602081019050919050565b82818337600083830152505050565b60006111e76111e284611194565b611179565b90508281526020810184848401111561120357611202611103565b5b61120e8482856111c5565b509392505050565b600082601f83011261122b5761122a6110fe565b5b813561123b8482602086016111d4565b91505092915050565b6000819050919050565b61125781611244565b811461126257600080fd5b50565b6000813590506112748161124e565b92915050565b60008060008060808587031215611294576112936110f4565b5b600085013567ffffffffffffffff8111156112b2576112b16110f9565b5b6112be87828801611216565b945050602085013567ffffffffffffffff8111156112df576112de6110f9565b5b6112eb87828801611216565b93505060406112fc87828801611265565b925050606061130d87828801611265565b91505092959194509250565b60008115159050919050565b61132e81611319565b82525050565b60006020820190506113496000830184611325565b92915050565b600060208284031215611365576113646110f4565b5b600061137384828501611265565b91505092915050565b600081519050919050565b600082825260208201905092915050565b60005b838110156113b657808201518184015260208101905061139b565b838111156113c5576000848401525b50505050565b60006113d68261137c565b6113e08185611387565b93506113f0818560208601611398565b6113f981611108565b840191505092915050565b61140d81611244565b82525050565b600060a082019050818103600083015261142d81886113cb565b9050818103602083015261144181876113cb565b90506114506040830186611404565b61145d6060830185611404565b818103608083015261146f81846113cb565b90509695505050505050565b60006020820190506114906000830184611404565b92915050565b600080604083850312156114ad576114ac6110f4565b5b60006114bb85828601611265565b925050602083013567ffffffffffffffff8111156114dc576114db6110f9565b5b6114e885828601611216565b9150509250929050565b7f4e487b7100000000000000000000000000000000000000000000000000000000600052601160045260246000fd5b600061152c82611244565b915061153783611244565b9250827fffffffffffffffffffffffffffffffffffffffffffffffffffffffffffffffff0382111561156c5761156b6114f2565b5b828201905092915050565b7f4e487b7100000000000000000000000000000000000000000000000000000000600052603260045260246000fd5b7f4e487b7100000000000000000000000000000000000000000000000000000000600052602260045260246000fd5b600060028204905060018216806115ed57607f821691505b602082108103611600576115ff6115a6565b5b50919050565b600081905092915050565b60008190508160005260206000209050919050565b60008154611633816115d5565b61163d8186611606565b9450600182166000811461165857600181146116695761169c565b60ff1983168652818601935061169c565b61167285611611565b60005b8381101561169457815481890152600182019150602081019050611675565b838801955050505b50505092915050565b7f203a200000000000000000000000000000000000000000000000000000000000815250565b60006116d78284611626565b91506116e2826116a5565b60038201915081905092915050565b60006116fc8261137c565b6117068185611606565b9350611716818560208601611398565b80840191505092915050565b600061172e8285611626565b915061173a82846116f1565b9150819050939250505056fea2646970667358221220bca2622cdd0b118274b52fb7788be9b756d00a02fd7e78f90e206822d881cf1864736f6c634300080d0033",
  "immutableReferences": {},
  "source": "// SPDX-License-Identifier: MIT\npragma solidity >=0.4.22 <0.9.0;\n\ncontract Products {\n\n  struct product{\n    string name;\n    string description;\n    uint id;\n    address org_owner;\n    address owner;\n    address renter;\n    uint price;\n    uint rent;\n    uint status;\n    string reviews;\n  }\n\n  product[] private allProducts;\n  uint private product_count = 1;\n  \n  constructor() public {\n    product memory prod = product(\"Civic\", \"Honda Civic 2022\", 0, msg.sender, msg.sender, msg.sender, 2, 1, 0, \"\");\n    product memory prod1 = product(\"Chair\", \"A black chair\", 0, msg.sender, msg.sender, msg.sender, 2, 1, 0, \"\");\n    product memory prod2 = product(\"Camera\", \"Nikon Camera\", 0, msg.sender, msg.sender, msg.sender, 2, 1, 0, \"\");\n    product memory prod3 = product(\"Mercedees\", \"S600 Black\", 0, msg.sender, msg.sender, msg.sender, 2, 1, 0, \"\");\n      allProducts.push(prod);\n      allProducts.push(prod1);\n      allProducts.push(prod2);\n      allProducts.push(prod3);\n  }\n\n\n  function addProduct(string memory name,string memory desc, uint price, uint rent) public returns(bool success){\n      product memory prod = product(name, desc, product_count, msg.sender, msg.sender, msg.sender, price, rent, 0, \"\");\n      product_count = product_count + 1;\n      allProducts.push(prod);\n      return true;\n  }\n\n    function buyProduct(uint id) public returns(bool success){\n      allProducts[id].owner = msg.sender;\n      allProducts[id].status = 1;  \n      return true;\n    }\n   \n   function rentProduct(uint id) public returns(bool success){\n      allProducts[id].renter = msg.sender;\n      allProducts[id].status = 2;  \n      return true;\n    }\n    \n    function getMyProducts(uint index) public view returns (string memory name, string memory desc, uint pr, uint ren, string memory reviews) {\n      product storage prod = allProducts[index];\n      if(prod.owner == msg.sender){\n        return (prod.name, prod.description, prod.price, prod.rent, prod.reviews);\n      }\n    }\n\n    function getMyProductsRent(uint index) public view returns (string memory name, string memory desc, uint pr, uint ren, string memory reviews) {\n      product storage prod = allProducts[index];\n      if(prod.renter == msg.sender && prod.renter != prod.owner){\n        return (prod.name, prod.description, prod.price, prod.rent, prod.reviews);\n      }\n    }\n\n    function addReview(uint index, string memory rev) public returns(bool success){\n      if(allProducts[index].renter == msg.sender || allProducts[index].owner == msg.sender){\n        allProducts[index].reviews = string.concat(allProducts[index].reviews, \" : \");\n        allProducts[index].reviews = string.concat(allProducts[index].reviews, rev);\n        return true;\n      }\n      return false;\n    }\n    \n    function getProductsCount() public view returns (uint count) {\n      return allProducts.length;\n    }\n\n    function getProduct(uint index) public view returns (string memory name, string memory desc, uint pr, uint ren, string memory reviews) {\n      product storage prod = allProducts[index];\n      if(prod.owner != msg.sender && prod.status == 0){\n        return (prod.name, prod.description, prod.price, prod.rent, prod.reviews);\n      }\n    }\n\n    function unRentProduct(uint id) public returns(bool success){\n      allProducts[id].renter = allProducts[id].owner;\n      allProducts[id].status = 0;  \n      return true;\n    }\n}\n",
  "sourcePath": "/home/usama/Desktop/BCC Project1/contracts/Products.sol",
  "compiler": {
    "name": "solc",
    "version": "0.8.13+commit.abaa5c0e.Emscripten.clang"
  },
  "schemaVersion": "3.4.7",
  "updatedAt": "2022-05-29T08:31:40.929Z",
  "networkType": "ethereum",
  "devdoc": {
    "kind": "dev",
    "methods": {},
    "version": 1
  },
  "userdoc": {
    "kind": "user",
    "methods": {},
    "version": 1
  }
}