{
  "contractName": "Users",
  "abi": [
    {
      "inputs": [],
      "stateMutability": "nonpayable",
      "type": "constructor"
    },
    {
      "inputs": [
        {
          "internalType": "address",
          "name": "userAddr",
          "type": "address"
        }
      ],
      "name": "hasUser",
      "outputs": [
        {
          "internalType": "bool",
          "name": "hasIndeed",
          "type": "bool"
        }
      ],
      "stateMutability": "view",
      "type": "function",
      "constant": true
    },
    {
      "inputs": [
        {
          "internalType": "bytes32",
          "name": "username",
          "type": "bytes32"
        }
      ],
      "name": "usernameTaken",
      "outputs": [
        {
          "internalType": "bool",
          "name": "taken",
          "type": "bool"
        }
      ],
      "stateMutability": "view",
      "type": "function",
      "constant": true
    },
    {
      "inputs": [
        {
          "internalType": "bytes32",
          "name": "username",
          "type": "bytes32"
        },
        {
          "internalType": "bytes32",
          "name": "pass",
          "type": "bytes32"
        }
      ],
      "name": "createUser",
      "outputs": [
        {
          "internalType": "bool",
          "name": "success",
          "type": "bool"
        }
      ],
      "stateMutability": "nonpayable",
      "type": "function"
    },
    {
      "inputs": [
        {
          "internalType": "address",
          "name": "userAddr",
          "type": "address"
        }
      ],
      "name": "getUserByAddress",
      "outputs": [
        {
          "internalType": "uint256",
          "name": "index",
          "type": "uint256"
        },
        {
          "internalType": "bytes32",
          "name": "username",
          "type": "bytes32"
        }
      ],
      "stateMutability": "view",
      "type": "function",
      "constant": true
    },
    {
      "inputs": [
        {
          "internalType": "bytes32",
          "name": "username",
          "type": "bytes32"
        },
        {
          "internalType": "bytes32",
          "name": "pass",
          "type": "bytes32"
        }
      ],
      "name": "verifyUser",
      "outputs": [
        {
          "internalType": "bool",
          "name": "success",
          "type": "bool"
        },
        {
          "internalType": "bytes32",
          "name": "user",
          "type": "bytes32"
        }
      ],
      "stateMutability": "view",
      "type": "function",
      "constant": true
    },
    {
      "inputs": [
        {
          "internalType": "address",
          "name": "userAddr",
          "type": "address"
        }
      ],
      "name": "getUserByAddr",
      "outputs": [
        {
          "internalType": "bytes32",
          "name": "username",
          "type": "bytes32"
        }
      ],
      "stateMutability": "view",
      "type": "function",
      "constant": true
    }
  ],
  "bytecode": "0x608060405234801561001057600080fd5b506003339080600181540180825580915050600190039060005260206000200160009091909190916101000a81548173ffffffffffffffffffffffffffffffffffffffff021916908373ffffffffffffffffffffffffffffffffffffffff160217905550600480600181540180825580915050600190039060005260206000200160007f61646d696e000000000000000000000000000000000000000000000000000000909190915055600580600181540180825580915050600190039060005260206000200160007f546573743132330000000000000000000000000000000000000000000000000090919091505561092c8061010f6000396000f3fe608060405234801561001057600080fd5b50600436106100625760003560e01c806369c212f6146100675780636fcdca7214610098578063a6c4ec0e146100c8578063a91202d3146100f8578063dd310ff314610128578063f16e4e4614610159575b600080fd5b610081600480360381019061007c91906106c9565b610189565b60405161008f929190610728565b60405180910390f35b6100b260048036038101906100ad919061077d565b610242565b6040516100bf91906107c5565b60405180910390f35b6100e260048036038101906100dd91906106c9565b61028b565b6040516100ef91906107c5565b60405180910390f35b610112600480360381019061010d91906107e0565b61034a565b60405161011f91906107c5565b60405180910390f35b610142600480360381019061013d91906107e0565b61051f565b604051610150929190610820565b60405180910390f35b610173600480360381019061016e91906106c9565b6105ee565b6040516101809190610849565b60405180910390f35b600080600380549050821061019d57600080fd5b6000808473ffffffffffffffffffffffffffffffffffffffff1673ffffffffffffffffffffffffffffffffffffffff1681526020019081526020016000205460046000808673ffffffffffffffffffffffffffffffffffffffff1673ffffffffffffffffffffffffffffffffffffffff168152602001908152602001600020548154811061022e5761022d610864565b5b906000526020600020015491509150915091565b6000806001600084815260200190815260200160002054118061028457507f61646d696e00000000000000000000000000000000000000000000000000000082145b9050919050565b6000806000808473ffffffffffffffffffffffffffffffffffffffff1673ffffffffffffffffffffffffffffffffffffffff168152602001908152602001600020541180610343575060036000815481106102e9576102e8610864565b5b9060005260206000200160009054906101000a900473ffffffffffffffffffffffffffffffffffffffff1673ffffffffffffffffffffffffffffffffffffffff168273ffffffffffffffffffffffffffffffffffffffff16145b9050919050565b6000806000803373ffffffffffffffffffffffffffffffffffffffff1673ffffffffffffffffffffffffffffffffffffffff1681526020019081526020016000205411806103ab575060006001600085815260200190815260200160002054115b156103b95760009050610519565b6003339080600181540180825580915050600190039060005260206000200160009091909190916101000a81548173ffffffffffffffffffffffffffffffffffffffff021916908373ffffffffffffffffffffffffffffffffffffffff16021790555060048390806001815401808255809150506001900390600052602060002001600090919091909150556005829080600181540180825580915050600190039060005260206000200160009091909190915055600160038054905061048091906108c2565b6000803373ffffffffffffffffffffffffffffffffffffffff1673ffffffffffffffffffffffffffffffffffffffff1681526020019081526020016000208190555060016003805490506104d491906108c2565b600160008581526020019081526020016000208190555060016003805490506104fd91906108c2565b6002600084815260200190815260200160002081905550600190505b92915050565b60008060016000858152602001908152602001600020546000803373ffffffffffffffffffffffffffffffffffffffff1673ffffffffffffffffffffffffffffffffffffffff16815260200190815260200160002054036105df576000803373ffffffffffffffffffffffffffffffffffffffff1673ffffffffffffffffffffffffffffffffffffffff168152602001908152602001600020546002600085815260200190815260200160002054036105de57600184915091506105e7565b5b600080915091505b9250929050565b60006105f98261028b565b61060257600080fd5b60046000808473ffffffffffffffffffffffffffffffffffffffff1673ffffffffffffffffffffffffffffffffffffffff168152602001908152602001600020548154811061065457610653610864565b5b90600052602060002001549050919050565b600080fd5b600073ffffffffffffffffffffffffffffffffffffffff82169050919050565b60006106968261066b565b9050919050565b6106a68161068b565b81146106b157600080fd5b50565b6000813590506106c38161069d565b92915050565b6000602082840312156106df576106de610666565b5b60006106ed848285016106b4565b91505092915050565b6000819050919050565b610709816106f6565b82525050565b6000819050919050565b6107228161070f565b82525050565b600060408201905061073d6000830185610700565b61074a6020830184610719565b9392505050565b61075a8161070f565b811461076557600080fd5b50565b60008135905061077781610751565b92915050565b60006020828403121561079357610792610666565b5b60006107a184828501610768565b91505092915050565b60008115159050919050565b6107bf816107aa565b82525050565b60006020820190506107da60008301846107b6565b92915050565b600080604083850312156107f7576107f6610666565b5b600061080585828601610768565b925050602061081685828601610768565b9150509250929050565b600060408201905061083560008301856107b6565b6108426020830184610719565b9392505050565b600060208201905061085e6000830184610719565b92915050565b7f4e487b7100000000000000000000000000000000000000000000000000000000600052603260045260246000fd5b7f4e487b7100000000000000000000000000000000000000000000000000000000600052601160045260246000fd5b60006108cd826106f6565b91506108d8836106f6565b9250828210156108eb576108ea610893565b5b82820390509291505056fea2646970667358221220e90ce42bee353b3dbf58e3cfa685a43b1557de30ce15b284d478e6830483a59464736f6c634300080d0033",
  "immutableReferences": {},
  "source": "// SPDX-License-Identifier: MIT\npragma solidity >=0.4.22 <0.9.0;\n\ncontract Users {\n\n  mapping(address => uint) private addressToIndex;\n  mapping(bytes32 => uint) private usernameToIndex;\n  mapping(bytes32 => uint) private passwordToIndex;\n\n  address[] private addresses;\n  bytes32[] private usernames;\n  bytes32[] private passwords;\n\n  constructor() public {\n    addresses.push(msg.sender);\n    usernames.push('admin');\n    passwords.push('Test123');\n  }\n\n  function hasUser(address userAddr) public view returns(bool hasIndeed){\n    return (addressToIndex[userAddr] > 0 || userAddr == addresses[0]);\n  }\n\n  function usernameTaken(bytes32 username) public view returns(bool taken){\n      return (usernameToIndex[username] > 0 || username == 'admin');\n  }\n\n  function createUser(bytes32 username, bytes32 pass) public returns(bool success){\n\n      if(addressToIndex[msg.sender] > 0 || usernameToIndex[username] > 0){\n        return false;\n      }\n      addresses.push(msg.sender);\n      usernames.push(username);\n      passwords.push(pass);\n\n      addressToIndex[msg.sender] = addresses.length - 1;\n      usernameToIndex[username] = addresses.length - 1;\n      passwordToIndex[pass] = addresses.length - 1;\n\n      return true;\n  }\n\n  function getUserByAddress(address userAddr) public view \n  returns(uint index, bytes32 username)\n  {\n    require(index < addresses.length);\n    return(addressToIndex[userAddr], usernames[addressToIndex[userAddr]]);\n  }\n\n  function verifyUser(bytes32 username, bytes32 pass) public view\n  returns(bool success, bytes32 user)\n  {\n    if(addressToIndex[msg.sender] == usernameToIndex[username]){\n      if(passwordToIndex[pass] == addressToIndex[msg.sender]){\n        return (true, username);\n      }\n    }\n    return (false, \"\");\n  }\n\n  function getUserByAddr(address userAddr) public view\n  returns(bytes32 username){\n    require(hasUser(userAddr));\n    return usernames[addressToIndex[userAddr]];\n  }\n}\n",
  "sourcePath": "/home/usama/Desktop/BCC Project1/contracts/Users.sol",
  "compiler": {
    "name": "solc",
    "version": "0.8.13+commit.abaa5c0e.Emscripten.clang"
  },
  "schemaVersion": "3.4.7",
  "updatedAt": "2022-05-29T08:31:28.981Z",
  "networkType": "ethereum",
  "devdoc": {
    "kind": "dev",
    "methods": {},
    "version": 1
  },
  "userdoc": {
    "kind": "user",
    "methods": {},
    "version": 1
  }
}